:020000000712E5
:0200010001ED0F
:020002000CDC14
:020003000AEF02
:02000400008C6E
:02000500037383
:020006000FAF3A
:020007000E5792
:020008000DF4F5
:020009000E5F88
:02000A000EAB3B
:02000B000F31B3
:02000C0005F2FB
:02000D00079D4D
:02000E00039B52
:02000F000743A5
:0200100003D01B
:020011000C5C85
:0200120008B133
:0200130009B52D
:020014000DC815
:020015000E7467
:0200160005AA39
:02001700026B7A
:020018000E7B5D
:0200190001B82C
:02001A000C9840
:02001B000C7A5D
:02001C0006F3E9
:02001D000C8B4A
:02001E000D478C
:02001F0003617B
:02002000032AB1
:020021000FF8D6
:020022000919BA
:02002300076D67
:0200240005A233
:02002500059341
:020026000C408C
:020027000C4487
:02002800081DB1
:0200290008C508
:02002A000BEADF
:02002B000AE1E8
:02002C000E8F35
:02002D000A5473
:02002E000B3E87
:02002F00004B84
:02003000008C42
:02003100033199
:02003200083C88
:0200330009685A
:020034000613B1
:0200350005C5FF
:020036000A932B
:020037000103C3
:020038000F8334
:020039000F7E38
:02003A000ED0E6
:02003B000021A2
:02003C0008C5F5
:02003D00005C65
:02003E000716A3
:02003F0009486E
:020040000813A3
:0200410005EACE
:0200420002B208
:020043000D01AD
:0200440001C1F8
:020045000A2D82
:020046000AA905
:0200470002B8FD
:0200480006931D
:02004900063778
:02004A000307AA
:02004B000B4761
:02004C000A1395
:02004D000F2A78
:02004E00001B95
:02004F000D7131
:0200500004A505
:020051000B475B
:020052000D3D62
:02005300080A99
:0200540006970D
:020055000FFE9C
:02005600005A4E
:0200570005F2B0
:02005800015D48
:02005900044859
:02005A00047B25
:02005B00078715
:02005C0008A3F7
:02005D000E741F
:02005E000A5A3C
:02005F000F5937
:0200600009C4D1
:020061000EFA95
:02006200049107
:0200630009D8BA
:020064000F4F3C
:020065000C92FB
:0200660008523E
:020067000A721B
:02006800055D34
:02006900078608
:02006A000F8EF7
:02006B0003662A
:02006C000E0282
:02006D000D8301
:02006E000893F5
:02006F00013757
:02007000033B50
:020071000CA5DC
:0200720005F88F
:020073000AE59C
:02007400018801
:02007500031472
:020076000F1366
:020077000D0179
:0200780000D7AF
:020079000D1662
:02007A0002552D
:02007B0002146D
:02007C00050479
:02007D0002CAB5
:02007E0004106C
:02007F000B571D
:0200800000F18D
:020081000F9CD2
:020082000CD0A0
:02008300067302
:0200840009DC95
:020085000488ED
:0200860000C8B0
:020087000AE885
:020088000DA1C8
:0200890008AFBE
:02008A000D2F38
:02008B000C98CF
:02008C000E6301
:02008D000A0D5A
:02008E0001CAA5
:02008F00095D09
:0200900009C0A5
:02009100014626
:0200920003FB6E
:020093000A3928
:020094000E84D8
:020095000ED388
:02009600070061
:0200970006223F
:0200980000580E
:0200990001451F
:02009A0000E67E
:02009B00031B45
:02009C00058ECF
:02009D0001233D
:02009E0003C598
:02009F000CDB78
:0200A000038AD1
:0200A1000770E6
:0200A200080C48
:0200A30000015A
:0200A4000889C9
:0200A500000F4A
:0200A60000DE7A
:0200A7000CA3A8
:0200A8000AC983
:0200A90008CB82
:0200AA0001B1A2
:0200AB0006DA73
:0200AC00024C04
:0200AD000CAC99
:0200AE000A0D39
:0200AF000DA89A
:0200B00008C581
:0200B10002EF5C
:0200B2000BCD74
:0200B3000694B1
:0200B40007F54E
:0200B5000E0E2D
:0200B6000FD861
:0200B70001DE68
:0200B800074CF3
:0200B90001DF65
:0200BA000560DF
:0200BB000F161E
:0200BC000C9B9B
:0200BD00029BA4
:0200BE0002CC72
:0200BF000193AB
:0200C000091D18
:0200C1000367D3
:0200C2000B062B
:0200C30000DF5C
:0200C4000E0923
:0200C50008F53C
:0200C6000484B0
:0200C70009BB73
:0200C8000AD25A
:0200C90002B182
:0200CA00056BC4
:0200CB000B2EFA
:0200CC000380AF
:0200CD000EB66D
:0200CE000647E3
:0200CF000A59CC
:0200D0000446E4
:0200D1000CDB46
:0200D200042503
:0200D3000B829E
:0200D40007B86B
:0200D500073EE4
:0200D6000C7E9E
:0200D700003DEA
:0200D8000F53C4
:0200D90002AC77
:0200DA000651CD
:0200DB00021011
:0200DC000A1800
:0200DD000277A8
:0200DE000E57BB
:0200DF000DD042
:0200E0000A8A8A
:0200E1000CAA67
:0200E2000A5BB7
:0200E3000447D0
:0200E4000F32D9
:0200E50005BF55
:0200E600027A9C
:0200E700039C78
:0200E80004FC16
:0200E900002BEA
:0200EA000921EA
:0200EB0002CE43
:0200EC000E44C0
:0200ED0009BB4D
:0200EE0002A46A
:0200EF000827E0
:0200F000070CFB
:0200F1000BD32F
:0200F200008E7E
:0200F3000DF30B
:0200F40004CA3C
:0200F50008F011
:0200F600075CA5
:0200F7000FDC1C
:0200F8000602FE
:0200F9000452AF
:0200FA00070AF3
:0200FB00058678
:0200FC000BDF18
:0200FD000C8E67
:0200FE0006E01A
:0200FF000F35BB
:0201000000AE4F
:0201010009559E
:020102000447B0
:020103000F618A
:02010400067B78
:020105000DA348
:0201060001FCFA
:020107000E04E4
:0201080001AE46
:0201090003925F
:02010A0009E604
:02010B00044F9F
:02010C000F6181
:02010D000402EA
:02010E000AD60F
:02010F00081FC7
:020110000004E9
:020111000C18C8
:020112000B04DC
:02011300085092
:02011400015296
:0201150001A740
:020116000C409B
:0201170000C125
:0201180007D707
:02011900064C92
:02011A000C6374
:02011B000BB423
:02011C00056973
:02011D00044A92
:02011E00053E9C
:02011F000C2CA6
:020120000E8649
:020121000104D7
:020122000A6A67
:0201230002FADE
:0201240002EEE9
:020125000E4783
:02012600002EA9
:0201270004BD15
:0201280000F2E3
:020129000EFCCA
:02012A00096565
:02012B000F10B3
:02012C00055676
:02012D000D3093
:02012E00044586
:02012F00077B4C
:02013000037258
:0201310009289B
:020132000D4975
:0201330009754C
:02013400092799
:020135000AC7F7
:020136000C1D9E
:02013700011FA6
:0201380002CEF5
:02013900025D65
:02013A00002B98
:02013B0003D7E8
:02013C000BD5E1
:02013D000D4B68
:02013E0006D1E8
:02013F00062F89
:0201400005CCEC
:020141000C6749
:02014200006952
:02014300035760
:02014400035561
:0201450002FBBB
:020146000C4863
:02014700065C54
:02014800062689
:02014900069A14
:02014A00086B40
:02014B0003FDB2
:02014C000A4661
:02014D0007E4C5
:02014E000B01A3
:02014F0001CCE1
:0201500006FFA8
:020151000EC1DD
:020152000E7C21
:0201530001BFEA
:020154000D8517
:0201550004455F
:0201560004A5FE
:0201570009118C
:02015800012480
:02015900088B11
:02015A000A8613
:02015B000A7226
:02015C000F5A38
:02015D00049903
:02015E0002ECB1
:02015F000FF39C
:0201600007D6C0
:020161000A088A
:020162000CC8C7
:020163000AF49C
:02016400018117
:0201650000CCCC
:0201660002C1D4
:0201670008EAA4
:02016800087419
:020169000B8FFA
:02016A000D99ED
:02016B0002B5DB
:02016C000F2959
:02016D00030E7F
:02016E000290FD
:02016F00053851
:02017000099EE6
:020171000E3E40
:02017200002368
:020173000D3C41
:02017400033F47
:020175000E3842
:02017600059DE5
:0201770005E899
:0201780001A7DD
:0201790003E39E
:02017A000B3246
:02017B000F3D36
:02017C000B6016
:02017D00094037
:02017E000DA9C9
:02017F0004D3A7
:02018000053F39
:0201810000F587
:020182000599DD
:020183000187F2
:0201840001F484
:0201850007432E
:020186000C3F2C
:020187000FD88F
:020188000FEF77
:020189000C3434
:02018A0005BBB3
:02018B0000056D
:02018C00055814
:02018D0002E688
:02018E0009DD89
:02018F0009DE87
:02019000044425
:02019100080460
:02019200048DDA
:020193000CDF7F
:02019400062B38
:02019500000266
:0201960007AEB2
:020197000E9CBC
:0201980007134B
:0201990001D390
:02019A000CBD9A
:02019B00009EC4
:02019C000DB3A1
:02019D000D8AC9
:02019E000287D6
:02019F000A054F
:0201A00003BB9F
:0201A1000A64EE
:0201A20009E171
:0201A30003E473
:0201A4000181D7
:0201A5000A65E9
:0201A60006D67B
:0201A70001ADA8
:0201A8000DD870
:0201A900045BF5
:0201AA0003222E
:0201AB0008CB7F
:0201AC000E1C27
:0201AD000EF44E
:0201AE0009EE58
:0201AF00080145
:0201B0000E4FF0
:0201B10001CB80
:0201B2000C64DB
:0201B3000990B1
:0201B400009AAF
:0201B50009D768
:0201B6000A74C9
:0201B70009CA73
:0201B800004302
:0201B90007F647
:0201BA0003CF71
:0201BB00099C9D
:0201BC0008DB5E
:0201BD00040339
:0201BE000DB082
:0201BF0006AE8A
:0201C0000ADE55
:0201C100002F0D
:0201C2000179C1
:0201C3000E3BF1
:0201C400023DFA
:0201C5000CD359
:0201C6000461D2
:0201C70003989B
:0201C80000C570
:0201C9000384AD
:0201CA000DD254
:0201CB000E43E1
:0201CC000CB66F
:0201CD0009C85F
:0201CE00046FBC
:0201CF000F0B14
:0201D000010F1D
:0201D1000CF12F
:0201D2000667BE
:0201D3000E9488
:0201D400051B09
:0201D500017EA9
:0201D6000E78A1
:0201D7000DF425
:0201D8000B1109
:0201D9000EDB3B
:0201DA000DED29
:0201DB00016AB7
:0201DC000339E5
:0201DD0003918C
:0201DE00059387
:0201DF000655C3
:0201E0000864B1
:0201E10000B567
:0201E200068D88
:0201E30006DD37
:0201E4000834DD
:0201E5000E7694
:0201E60009D935
:0201E70007BB54
:0201E80003DD35
:0201E900069A74
:0201EA000CC245
:0201EB00015DB4
:0201EC00006FA2
:0201ED0003CA43
:0201EE000720E8
:0201EF0009AF56
:0201F0000DF709
:0201F10004FE0A
:0201F20005F016
:0201F30003CB3C
:0201F400063BC8
:0201F5000758A9
:0201F60009FFFF
:0201F7000CA753
:0201F8000ACF2C
:0201F90004BB45
:0201FA000A3FBA
:0201FB0009EF0A
:0201FC00089663
:0201FD00096493
:0201FE0007D622
:0201FF0009E312
:00000001FF
