:0400000038A5D23518
:04000100188E1B0238
:04000200EE4BF8E8E1
:040003006DD88E170F
:04000400F7376978E9
:04000500A870638FED
:040006008C38B6A1DB
:04000700EC4FDF4794
:040008005D544CA84F
:04000900E0AB3045F3
:04000A00EB5863CB81
:04000B00BD4B01B830
:04000C002E614835E4
:04000D00B146920F57
:04000E00D770B08E69
:04000F00C532A5C889
:04001000C664BDE124
:04001100D49821431B
:0400120074E59246B9
:04001300F4868925C1
:040014004B90D3ED4D
:040015001C7B038AC3
:04001600AD0C648445
:04001700F0B0BB8307
:04001800D3D971BD0A
:04001900CEE90648DE
:04001A000B4FA60DD5
:04001B00B7A7719B77
:04001C0045E0AD64AA
:04001D002E5483CB0F
:04001E001563BE1098
:04001F006318B21799
:04002000776C17835F
:040021003BE5445C1B
:0400220066657B2173
:040023003E247F4FA9
:040024004AE8B214E0
:04002500DD549BF318
:04002600E5CE2A6990
:04002700B876402C3B
:04002800506D478848
:04002900B53220DFED
:04002A00F56E614FBF
:04002B00BB948DF500
:04002C00AF0C4A7E4D
:04002D00F5E7394971
:04002E0045C9A0061A
:04002F00B85E483E31
:040030004DAFC89276
:04003100F6DEAFC286
:04003200CF7324DF85
:0400330020692B0E07
:040034006B548AAFD0
:04003500BDDEA11D6E
:04003600A5D2C62564
:040037000E8159BF1E
:04003800DCBD5809CA
:04003900EB5F0B87E7
:04003A00725C958AD5
:04003B005E06421FFC
:04003C006A3603021B
:04003D0001C5D92CF4
:04003E0026C4C8C547
:04003F00F4C9CB95A0
:04004000B2EE11D03B
:04004100CFE95CC4E3
:0400420028215B36E0
:04004300B696CF4955
:040044009C44A737FA
:04004500B8537FAB82
:04004600766EAB48DF
:04004700903C911543
:04004800CCDD7E3C51
:040049006473FBEBF6
:04004A000A6EDA243C
:04004B002426C53B67
:04004C00B48F92CF0C
:04004D004EE5C9B6FD
:04004E007D61394E49
:04004F003B674A259C
:04005000ECA96207AE
:04005100F2901BDC32
:04005200E28018B37D
:04005300C0EFD5899C
:04005400AC41A8BD56
:04005500A6034AE6CE
:04005600BFE64A7740
:040057004DAE0F0992
:04005800BEDD2E419A
:04005900465CC61A21
:04005A00D9D37198ED
:04005B00D970B0B2F6
:04005C00E05352AA71
:04005D002D86DB6EA3
:04005E0097F61513E9
:04005F005A092E67A5
:00000001FF
